:0400000002001132B7
:03000B000200935D
:08006A00E4F50AF50B02000E9B
:03000E000200A647
:10007200758902758C9B758A9BD2AFD2A9D28C22CC
:1000820085820C85830D750A01E4F50BF508F509E7
:1000920022C0E0C0D00508E4B508020509C28DD02F
:1000A200D0D0E032900001120082120072759000EE
:1000B2007401B50A0614B50B02800122E50CB508DD
:1000C200FBE50DB509F6E590F4F590E4F508F509C0
:0200D20080EAC2
:06004000E478FFF6D8FD94
:10001E007900E94400601B7A009000D8780175A041
:10002E0000E493F2A308B8000205A0D9F4DAF27541
:02003E00A0FF21
:100046007800E84400600A790175A000E4F309D855
:10005600FC7800E84400600C7900900001E4F0A30D
:04006600D8FCD9FAEF
:0D00110075810D1200D4E582600302000E1F
:0400D400758200220F
:00000001FF
