:04000000020039328F
:01000B0032C2
:0100130032BA
:01001B0032B2
:0100230032AA
:01002B0032A2
:030033000200B711
:0D009200E4F521F522F523F524F52FF530D6
:0300A7000200361E
:030036000201665E
:1000AA00D2AFD2AE75DA1175D840C2DF22C020C0F5
:1000BA00E0C0F0C082C083C007C006C005C004C04B
:1000CA0003C002C001C000C0D075D000C2AFC2AE2A
:1000DA0030D86110DF0280080525E4B5250205261F
:1000EA00AFFA7E008E278F2885EA298E2A852D2B46
:1000FA00852E2CE5292527FEE52A3528FFE4FD2E45
:10010A00F52DED3FF52EE52DC3952BF52FE52E9513
:10011A002CF530852F1BF51C3395E0F51DF51E9047
:10012A0093E075F004E412020AAC82AD83AEF0FFEC
:10013A008C318D32C2D8D2AFD2AEE4F525F526D0B5
:10014A00D0D000D001D002D003D004D005D006D040
:10015A0007D083D082D0F0D0E0D0203212036E12C2
:10016A0000AA12047BC031C032742EC0E0740EC0E3
:10017A00E07480C0E07433C0E07400C0E07440C032
:10018A00E0120309E58124F8F58190003375F04007
:0B019A00120443900BB812035780C7FB
:090E2E0052504D203D20256900C1
:1001A500FB7A20E4FCFDFEFFE5822582F582E583EE
:1001B50033F583E5F033F5F0EB33FB4017DAE980EF
:1001C50042E5822582F582E58333F583E5F033F553
:1001D500F0EB33FBEC33FCED33FDEE33FEEF33FF99
:1001E500EC951BED951CEE951DEF951E4013EC95BA
:1001F5001BFCED951CFDEE951DFEEF951EFF438244
:0502050001DABEEB224E
:06006800E478FFF6D8FD6C
:100046007900E94400601B7A00900E42780175A0A1
:1000560000E493F2A308B8000205A0D9F4DAF27519
:02006600A0FFF9
:10006E007800E84400600A790175A000E4F309D82D
:10007E00FC7800E84400600C7900900001E4F0A3E5
:04008E00D8FCD9FAC7
:10020A00FBC2D530E715D2D5E4C39582F582E495D1
:10021A0083F583E495F0F5F0E49BFBE51E30E717E0
:10022A00B2D5E4C3951BF51BE4951CF51CE4951D9A
:10023A00F51DE4951EF51EEB1201A530D513FBE45E
:10024A00C39582F582E49583F583E495F0F5F0E4AD
:10025A009B22C01A85811AC082058105810581E524
:10026A001A24FBF8A91A0909E6F70809E6F70809A2
:10027A00E6F7A81A080886820886830886F0120D0F
:10028A00F3FAA3120DF3FBA3120DF3FF74012AFC78
:10029A00E43BFD8F06A81A0808868208868308862A
:1002AA00F0EC120E13A3ED120E13A3EE120E138A24
:1002BA00828B838FF0A81A08E6120E13851A81D052
:1002CA001A2285820C85830D85F00E754F0C7550A8
:1002DA0000755140850852850953850A54850B5586
:1002EA0090025C12071EAE82AF83AB0CAC0DAD0E52
:1002FA008B828C838DF0E4120E138E828F8322C040
:10030A001A85811AE51A24F8FF8F55E51A24FBFF8E
:10031A008F4F755000755140E51A24F8F886520837
:10032A00865308865490025C12071EAE82AF83E59C
:10033A001A24FBF886030886040886058B828C83B8
:0D034A008DF0E4120E138E828F83D01A22E4
:08009F00751200E4F513F514DD
:10035700AE82AF837C007D00C3EC9EED9F50070CFF
:10036700BC00F50D80F222C2C0C2C1758030D2C276
:1003770090012C120357C2C2900064120357D2C2D5
:1003870090012C120357C2C2900064120357D2C2C5
:1003970090012C120357C2C2900064120357758054
:1003A70038D2C2900064120357C2C290006412038D
:1003B70057758008D2C290012C120357C2C2900011
:1003C70064120357758001D2C290012C120357C2E1
:1003D700C2900064120357758006D2C290012C1296
:1003E7000357C2C290006412035775800CD2C290A3
:1003F700012C120357C2C2900064120357750F00F5
:1004070022AF827410B50F0C75820FC00712049AC1
:10041700D007800F7420B50F0A758200C007120439
:100427009AD007D2C0C2C18F80D2C29000321203C5
:1004370057C2C2900032120357050F22AD82AE8316
:10044700AFF0751000E5102DFAE43EFB8F048A82A9
:100457008B838CF0120DF3FC60198C82C007C006E9
:10046700C005120408D005D006D007051074E02592
:100477001050D222C2C0C2C1758001D2C2900032D0
:10048700120357C2C2900064120357750F002285EA
:100497000F8222AF8274E0250F40238F0F74F0255F
:1004A7000F401BAF0F74802FF580C2C0C2C1D2C2EC
:1004B700900064120357C2C290003202035722749D
:1004C7000125124004051280F6D2A0D2A1D2A2D2F1
:1004D700A375110DC2A020A40375110120A50375F2
:1004E700110220A603751103D2A0C2A120A403758F
:1004F700110420A50375110520A603751106D2A1C5
:10050700C2A220A40375110720A50375110820A610
:1005170003751109D2A2C2A320A40375110A20A54D
:100527000375110020A60375110CD2A38511822231
:10053700AEF64306018EF675F320AEF34306088E3A
:10054700F3E5F3E470FB53F3EFAEF57F00EE2EFE19
:10055700EF33FFEE2EFEEF33FFACF47D00EC2EF50C
:1005670013ED3FF51485138285148322AE82AF8382
:10057700AC894304208C8953892FC29FD29EAC87B4
:100587004304808C878E1B8F1C751D00751E009081
:10059700F424E4F5F012020AAC82C3E49CFC8C8DCF
:1005A700D29CD28E2285829910990280FB22AD823D
:1005B700AE83AFF07C00EC2DF9E43EFA8F0389821D
:1005C7008A838BF0120DF3FB60188B82C007C0067D
:1005D700C005C0041205ACD004D005D006D0070C66
:1005E70080D475820D1205AC75820A0205AC30986D
:1005F700FD859982C2982285821785831885F0190F
:100607007C007B008B017A00C3E99515EA6480853D
:1006170016F063F08095F05044C004C0031205F54E
:10062700AA82D003D004BA0D028003BA0A16EC25B9
:1006370017F8E43518F9AF19888289838FF0E41227
:100647000E138019EB2517FDE43518FEAF198D82BF
:100657008E838FF0EA120E130B8B0480A7E5152506
:1006670017FDE5163518FEAF198D828E838FF0E4DE
:10067700020E13AF82C045C046C0471206878007E7
:10068700C043C0448F8222158115811581054DE431
:10069700B54D02054E22AF8274302FFF24C650118C
:1006A70074072FFFE54260098F057E004305208D03
:1006B700078F8202067AE582FFC4540FF582C007CE
:1006C70012069DD007740F5FF58202069D85821B77
:1006D700AB48AC49AD4AAE4BAA4C751D208A07EF13
:1006E7002FF51CEE235401451CFAEB2BFBEC33FCD6
:1006F700ED33FDEE33FEC3EA951B4008EAC3951BB5
:10070700FA430301E51D14FF8F1D70D18B488C49F7
:100717008D4A8E4B8A4C22858243858344854F457B
:10072700855046855147E4F54DF54EAD52AE53AF72
:10073700548D828E838FF0120DF3FC74012DF552C8
:10074700E43EF5538F54ECFF7003020DD4BF25022E
:100757008003020DCC7E007D008E568E577A007B7B
:10076700008E587C008E598E5F755AFF85526085C2
:1007770053618554628560828561838562F0120DBD
:10078700F3F563A385826085836185605285615334
:100797008562547425B5630885638212067A808B57
:1007A70074D025635039E56324C6403374FFB55AC6
:1007B7001AE55FF56475F00AA4F564E563F5652548
:1007C7006424D0F55F70AE7D0180AAE55A75F00A02
:1007D700A4F565E563F564256524D0F55A8096741C
:1007E7002EB5630A74FFB55A8C755A008087749FBB
:1007F7002563500EE563248540085363DF75420186
:1008070080037542007420B563030208A7742BB5F3
:1008170063030208A1742DB5630280797442B5633E
:10082700030208AD7443B563030208B87444B563A3
:1008370003020AC97446B56303020ADF7448B56345
:100847000302077C7449B56303020AC9744AB56396
:100857000302077C744CB563028050744FB5630381
:10086700020AD07450B56303020A147453B56302C5
:1008770080767454B5630302077C7455B56303022D
:100887000AD57458B56303020ADA745AB5630302CA
:10089700077C020AE37E0102077C75560102077C8A
:1008A70075570102077C7B0102077C755801020717
:1008B7007CEB600AE55514F989558765800DE55588
:1008C70024FEF564856455A9648765856582C0063D
:1008D700C005C004C003C00212067AD002D003D0FC
:1008E70004D005D006020B02E55524FDF5658565A4
:1008F70055A9658760098761098762191985604865
:1009070085614985624A8560828561838562F0C019
:1009170006C005C004C003C002120DDB85826085D6
:100927008361D002D003D004D005D00685606574FA
:10093700FFB55A0385655AEE7036C3E565955F5076
:100947002FE55FC39565F5648564601564E56060B0
:100957001C758220C006C005C004C003C002120671
:100967007AD002D003D004D005D00680DB85645F3F
:10097700855A64854882854983854AF0120DF3F5C7
:100987006085605C60488564601564C374808560B9
:10099700F063F08095F05036855C82C006C005C0D4
:1009A70004C003C00212067AD002D003D004D005D7
:1009B700D006854860854961854A620560E4B5606F
:1009C70002056185604885614985624A80A5EE70A8
:1009D70003020B02C3E565955F4003020B02E55F67
:1009E700C39565F5658565641565E5647003020A59
:1009F700FF758220C006C005C004C003C0021206EE
:100A07007AD002D003D004D005D00680D8E555248B
:100A1700FDF564856455A964876009876109876264
:100A2700191985604885614985624A854A5D7480E0
:100A3700255D5005756443801974A0255D500575C3
:100A47006450800E74C0255D500575644980037538
:100A57006458856482C006C005C004C003C0021282
:100A6700067A75823A12067A75823012067A75828C
:100A77007812067AD002D003D004D005D006744984
:100A8700B5640280217450B56402801A854982C01A
:100A970006C005C004C003C0021206BDD002D003C1
:100AA700D004D005D006854882C006C005C004C062
:100AB70003C0021206BDD002D003D004D005D00671
:100AC70080397A0175590A8032755908802D755910
:100AD7000A802875591080237C01801F856382C096
:100AE70006C005C004C003C00212067AD002D003B4
:100AF700D004D005D006800385655FEC6068E555B6
:100B070024FCFC8C558C018766098767098768096F
:100B1700876919191985664885674985684A856906
:100B27004B75483775490E754A808548668549670C
:100B3700854A6874012566F560E43567F56185685F
:100B47006285604885614985624A856682856783D3
:100B57008568F0120DF3FC8C667003020732856618
:100B67008212067A80C4E5597003020732EB603FB0
:100B7700E55514F9895587048C6675670075680013
:100B870075690085664885674985684A85694BEABE
:100B97006003020C1F8548667567007568007569F4
:100BA7000085664885674985684A85694B8069E598
:100BB700586025E55524FCFC8C558C018766098710
:100BC7006709876809876919191985664885674913
:100BD70085684A85694B8040E55524FEFC8C558C19
:100BE700018703098704198B66ECF5673395E0F5F0
:100BF70068F56985664885674985684A85694BEA66
:100C07007016854866854967F568F569856648857C
:100C1700674985684A85694BEA602AE54B30E723CF
:100C2700C3E49548F566E49549F567E4954AF568A0
:100C3700E4954BF56985664885674985684A8569FE
:100C47004B80027A007C01796F7B00754C008559D7
:100C570082C006C005C004C003C002C0011206D48A
:100C6700D001D002D003D004D005D006EC7010C05C
:100C770003E54CC4F566E74566F719D0038002A77C
:100C87004C0BECB40100E433FCE5484549454A45C3
:100C97004B70B8895E8B5BE55F7003755F01ED7024
:100CA7002CEE7029855F66AB5B0BC3EB9566501A1C
:100CB700758220C006C005C004C00212067AD002A1
:100CC700D004D005D006156680DD85665FEA60161C
:100CD70075822DC006C005C00412067AD004D0055F
:100CE700D006155F8036E55B6032E5566016758283
:100CF7002BC006C005C00412067AD004D005D00662
:100D0700155F8018E5576014758220C006C005C0BE
:100D17000412067AD004D005D006155FEE7034AB06
:100D27005F8B021BC3E55B9A503CED60087566302C
:100D37007567008006756620756700856682C00640
:100D4700C005C004C00312067AD003D004D005D072
:100D57000680CEC3E55B955F5008E55FC3955BFDF5
:100D670080067D0080028B05A95EAB5B8B021BEAC8
:100D77006036ECB40100E433FC700A09E7C4540F91
:100D8700FA8A4C80078702740F5AF54C854C82C04B
:100D970006C005C004C003C00112069DD001D003E0
:100DA700D004D005D00680C4EE70030207328D064A
:100DB7008E051EED7003020732758220C0061206EB
:100DC7007AD00680EB8F8212067A020732854D822F
:040DD700854E8322A0
:0B0E37003C4E4F20464C4F41543E0003
:100DDB00AA82AB83120DF36003A380F8C3E5829A5A
:080DEB00F582E5839BF58322EC
:0D00390075816F120E0FE582600302003624
:100DF30020F71430F6148883A88220F507E6A88329
:100E030075830022E280F7E49322E02275820022B8
:100E130020F71130F6138883A88220F509F6A883FA
:0B0E23007583002280FEF280F5F022B3
:00000001FF
