:0600000002000902007D70
:09006200E4F521F522F544F54511
:0300730002000682
:030006000200D223
:20007600D2AFD2A8C28822C020C0E0C0F0C082C083C007C006C005C004C003C002C001C032
:2000960000C0D075D000E54445457013754401F5450521E4B521020522900032120211D08B
:2000B600D0D000D001D002D003D004D005D006D007D083D082D0F0D0E0D020321202281239
:2000D6000076E4F544F545120335C021C022749FC0E0740DC0E07480C0E07423C0E074001D
:2000F600C0E07440C0E01201C3E58124F8F58190002375F0401202FD90138812021180C22D
:070D9F0063203D20256900DF
:06003800E478FFF6D8FD9C
:200016007900E94400601B7A00900DB1780175A000E493F2A308B8000205A0D9F4DAF275D2
:02003600A0FF29
:20003E007800E84400600A790175A000E4F309D8FC7800E84400600C7900900001E4F0A3C0
:04005E00D8FCD9FAF7
:20011600C01A85811AC082058105810581E51A24FBF8A91A0909E6F70809E6F70809E6F757
:20013600A81A080886820886830886F0120CADFAA3120CADFBA3120CADFF74012AFCE43BEB
:20015600FD8F06A81A080886820886830886F0EC120D32A3ED120D32A3EE120D328A828BF7
:20017600838FF0A81A08E6120D32851A81D01A2285820C85830D85F00E75530C755400757D
:200196005540850856850957850A58850B599001161205D8AE82AF83AB0CAC0DAD0E8B82EC
:2001B6008C838DF0E4120D328E828F8322C01A85811AE51A24F8FF8F59E51A24FBFF8F5329
:2001D600755400755540E51A24F8F886560886570886589001161205D8AE82AF83E51A2461
:1B01F600FBF886030886040886058B828C838DF0E4120D328E828F83D01A2251
:08006B00751200E4F513F51411
:20021100AE82AF837C007D00C3EC9EED9F50070CBC00F50D80F222C2C0C2C1758030D2C226
:2002310090012C120211C2C2900064120211D2C290012C120211C2C2900064120211D2C287
:2002510090012C120211C2C2900064120211758038D2C2900064120211C2C29000641202A8
:2002710011758008D2C290012C120211C2C2900064120211758001D2C290012C120211C21E
:20029100C2900064120211758006D2C290012C120211C2C290006412021175800CD2C2903F
:2002B100012C120211C2C2900064120211750F0022AF827410B50F0C75820FC007120354DD
:2002D100D007800F7420B50F0A758200C007120354D007D2C0C2C18F80D2C29000321202B9
:2002F10011C2C2900032120211050F22AD82AE83AFF0751000E5102DFAE43EFB8F048A82DF
:200311008B838CF0120CADFC60198C82C007C006C0051202C2D005D006D007051074E025BC
:200331001050D222C2C0C2C1758001D2C2900032120211C2C2900064120211750F0022851A
:200351000F8222AF8274E0250F40238F0F74F0250F401BAF0F74802FF580C2C0C2C1D2C23D
:20037100900064120211C2C290003202021122740125124004051280F6D2A0D2A1D2A2D22E
:20039100A375110DC2A020A40375110120A50375110220A603751103D2A0C2A120A40375B3
:2003B100110420A50375110520A603751106D2A1C2A220A40375110720A50375110820A628
:2003D10003751109D2A2C2A320A40375110A20A50375110020A60375110CD2A385118222F2
:2003F100AEF64306018EF675F320AEF34306088EF3E5F3E470FB53F3EFAEF57F00EE2EFEE7
:20041100EF33FFEE2EFEEF33FFACF47D00EC2EF513ED3FF51485138285148322AE82AF8341
:20043100AC894304208C8953892FC29FD29EAC874304808C878E1B8F1C751D00751E009008
:20045100F424E4F5F0120D4DAC82C3E49CFC8C8DD29CD28E2285829910990280FB22AD82B1
:20047100AE83AFF07C00EC2DF9E43EFA8F0389828A838BF0120CADFB60188B82C007C006F4
:20049100C005C004120466D004D005D006D0070C80D475820D12046675820A0204663098DB
:2004B100FD859982C2982285821785831885F0197C007B008B017A00C3E99515EA648085A0
:2004D10016F063F08095F05044C004C0031204AFAA82D003D004BA0D028003BA0A16EC25C3
:2004F10017F8E43518F9AF19888289838FF0E4120D328019EB2517FDE43518FEAF198D825D
:200511008E838FF0EA120D320B8B0480A7E5152517FDE5163518FEAF198D828E838FF0E47A
:03053100020D3286
:20053400AF82C049C04AC04B1205418007C047C0488F82221581158115810551E4B5510233
:20055400055222AF8274302FFF24C6501174072FFFE54660098F057E004305208D078F8264
:20057400020534E582FFC4540FF582C007120557D007740F5FF58202055785821BAB4CACA0
:200594004DAD4EAE4FAA50751D208A07EF2FF51CEE235401451CFAEB2BFBEC33FCED33FD8C
:2005B400EE33FEC3EA951B4008EAC3951BFA430301E51D14FF8F1D70D18B4C8C4D8D4E8EAA
:2005D4004F8A502285824785834885534985544A85554BE4F551F552AD56AE57AF588D8226
:2005F4008E838FF0120CADFC74012DF556E43EF5578F58ECFF7003020C8EBF2502800302E9
:200614000C867E007D008E5A8E5B7A007B008E5C7C008E5D8E63755EFF855664855765855A
:2006340058668564828565838566F0120CADF567A3858264858365856456856557856658D0
:200654007425B56708856782120534808B74D025675039E56724C6403374FFB55E1AE5631B
:20067400F56875F00AA4F568E567F569256824D0F56370AE7D0180AAE55E75F00AA4F5699C
:20069400E567F568256924D0F55E8096742EB5670A74FFB55E8C755E008087749F2567500F
:2006B4000EE567248540085367DF75460180037546007420B56703020761742BB56703026B
:2006D400075B742DB5670280797442B567030207677443B567030207727444B56703020974
:2006F400837446B567030209997448B567030206367449B56703020983744AB5670302067E
:2007140036744CB567028050744FB5670302098A7450B567030208CE7453B5670280767460
:2007340054B567030206367455B5670302098F7458B56703020994745AB5670302063602BB
:20075400099D7E01020636755A01020636755B010206367B01020636755C01020636EB60F0
:200774000AE55914F989598769800DE55924FEF568856859A9688769856982C006C005C0F2
:2007940004C003C002120534D002D003D004D005D0060209BCE55924FDF569856959A96970
:2007B4008764098765098766191985644C85654D85664E8564828565838566F0C006C0053A
:2007D400C004C003C002120C95858264858365D002D003D004D005D00685646974FFB55E35
:2007F4000385695EEE7036C3E5699563502FE563C39569F5688568641568E564601C75828A
:2008140020C006C005C004C003C002120534D002D003D004D005D00680DB856863855E686B
:20083400854C82854D83854EF0120CADF56485646060488568641568C374808564F063F073
:200854008095F05036856082C006C005C004C003C002120534D002D003D004D005D00685CA
:200874004C64854D65854E660564E4B56402056585644C85654D85664E80A5EE700302093C
:20089400BCC3E569956340030209BCE563C39569F5698569681569E56870030209B97582BF
:2008B40020C006C005C004C003C002120534D002D003D004D005D00680D8E55924FDF568AD
:2008D400856859A9688764098765098766191985644C85654D85664E854E61748025615002
:2008F40005756843801974A025615005756850800E74C0256150057568498003756858850A
:200914006882C006C005C004C003C00212053475823A120534758230120534758278120546
:2009340034D002D003D004D005D0067449B5680280217450B56802801A854D82C006C00572
:20095400C004C003C002120577D002D003D004D005D006854C82C006C005C004C003C00261
:20097400120577D002D003D004D005D00680397A01755D0A8032755D08802D755D0A8028E4
:20099400755D1080237C01801F856782C006C005C004C003C002120534D002D003D004D0CC
:2009B40005D0068003856963EC6068E55924FCFC8C598C01876A09876B09876C09876D19F6
:2009D4001919856A4C856B4D856C4E856D4F754CA6754D0D754E80854C6A854D6B854E6CA9
:2009F4007401256AF564E4356BF565856C6685644C85654D85664E856A82856B83856CF0E7
:200A1400120CADFC8C6A70030205EC856A8212053480C4E55D70030205ECEB603FE559141B
:200A3400F9895987048C6A756B00756C00756D00856A4C856B4D856C4E856D4FEA6003025C
:200A54000AD9854C6A756B00756C00756D00856A4C856B4D856C4E856D4F8069E55C60251A
:200A7400E55924FCFC8C598C01876A09876B09876C09876D191919856A4C856B4D856C4EAF
:200A9400856D4F8040E55924FEFC8C598C018703098704198B6AECF56B3395E0F56CF56D90
:200AB400856A4C856B4D856C4E856D4FEA7016854C6A854D6BF56CF56D856A4C856B4D8582
:200AD4006C4E856D4FEA602AE54F30E723C3E4954CF56AE4954DF56BE4954EF56CE4954F28
:200AF400F56D856A4C856B4D856C4E856D4F80027A007C0179737B00755000855D82C006B9
:200B1400C005C004C003C002C00112058ED001D002D003D004D005D006EC7010C003E550F4
:200B3400C4F56AE7456AF719D0038002A7500BECB40100E433FCE54C454D454E454F70B8BB
:200B540089628B5FE5637003756301ED702CEE702985636AAB5F0BC3EB956A501A75822073
:200B7400C006C005C004C002120534D002D004D005D006156A80DD856A63EA601675822D02
:200B9400C006C005C004120534D004D005D00615638036E55F6032E55A601675822BC00687
:200BB400C005C004120534D004D005D00615638018E55B6014758220C006C005C00412058D
:200BD40034D004D005D0061563EE7034AB638B021BC3E55F9A503CED6008756A30756B001D
:200BF4008006756A20756B00856A82C006C005C004C003120534D003D004D005D00680CE0E
:200C1400C3E55F95635008E563C3955FFD80067D0080028B05A962AB5F8B021BEA6036EC2F
:200C3400B40100E433FC700A09E7C4540FFA8A5080078702740F5AF550855082C006C0055F
:200C5400C004C003C001120557D001D003D004D005D00680C4EE70030205EC8D068E051ECB
:200C7400ED70030205EC758220C006120534D00680EB8F821205340205EC855182855283A3
:010C9400223D
:0B0DA6003C4E4F20464C4F41543E0095
:180C9500AA82AB83120CAD6003A380F8C3E5829AF582E5839BF58322CC
:0D000900758173120D2EE582600302000662
:1C0CAD0020F71430F6148883A88220F507E6A88375830022E280F7E49322E02256
:200CC900FB7A20E4FCFDFEFFE5822582F582E58333F583E5F033F5F0EB33FB4017DAE98064
:200CE90042E5822582F582E58333F583E5F033F5F0EB33FBEC33FCED33FDEE33FEEF33FF93
:200D0900EC951BED951CEE951DEF951E4013EC951BFCED951CFDEE951DFEEF951EFF4382C4
:050D290001DABEEB221F
:040D2E0075820022A8
:1B0D320020F71130F6138883A88220F509F6A8837583002280FEF280F5F022C0
:200D4D00FBC2D530E715D2D5E4C39582F582E49583F583E495F0F5F0E49BFBE51E30E7177F
:200D6D00B2D5E4C3951BF51BE4951CF51CE4951DF51DE4951EF51EEB120CC930D513FBE4B7
:120D8D00C39582F582E49583F583E495F0F5F0E49B22A0
:00000001FF
