:03000000020006F5
:03005F0002000399
:0300030002008573
:1000620085829022AE82AF837C007D00C3EC9EED40
:1000720064808FF063F08095F050070CBC00ED0DAA
:1000820080EA227590F0904E2012006675900F90D3
:070092004E2012006680EC15
:06003500E478FFF6D8FD9F
:100013007900E94400601B7A0090009D780175A087
:1000230000E493F2A308B8000205A0D9F4DAF2754C
:02003300A0FF2C
:10003B007800E84400600A790175A000E4F309D860
:10004B00FC7800E84400600C7900900001E4F0A318
:04005B00D8FCD9FAFA
:0D000600758108120099E582600302000375
:04009900758200224A
:00000001FF
