:03000000020006F5
:09005F00E4F53CF53DF53EF53FEA
:0300700002000388
:030003000200A94F
:2000730075F60175F32053F3F8AEF38EF3AEF37F004306088EF3AEF35306107F00BE10F6DA
:20009300BF00F353F3EFE5F525E025E0FFE5F42FF540854082221204BE1205CB1206878503
:2000B30082388583391207CA85823C85833D85F03EF53FC03CC03DC03EC03F909BA675F0B4
:2000D30044743B12024FAC82AD83AEF0FFE58124FCF581C004C005C006C00790333375F04F
:2000F300537440120FEDAC82AD83AEF0FFE58124FCF581C004C005C006C00790800075F056
:200113003B744612024FAC82AD83AEF0FFE58124FCF581E4C0E07480C0E0743BC0E074465C
:20013300C0E08C828D838EF0EF120244AC82AD83AEF0FFE58124FCF581C374A89538748290
:200153008539F063F08095F05059C004C005C006C00790E70475F00C74BC12024FA882A975
:2001730083AAF0FBE58124FCF5817431C0E07408C0E074A1C0E07442C0E0888289838AF05C
:20019300EB120353A882A983AAF0FBE58124FCF581888289838AF0EB1207D785823A85835E
:2001B3003B8057C004C005C006C007909BA675F0C474BA12024FAC82AD83AEF0FFE58124F4
:2001D300FCF5817437C0E07409C0E07419C0E07442C0E08C828D838EF0EF120353AC82ADE1
:2001F30083AEF0FFE58124FCF5818C828D838EF0EF1207D785823A85833BC03AC03B747FE9
:20021300C0E07412C0E07480C0E07408C0E07400C0E07440C0E0120459E58124F8F58190F6
:11023300000875F0401205939075301204A70200ACC3
:0A127F0054656D70203D20256900C4
:0B024400A8811818C6B2E7C6020353D9
:20024F001202F2BC000302082CEF60FA30D502B2D1E583B4FF03020842E582B4FF03020830
:20026F0042258340072482400B02082C2483145003020842F582EA8DF0A4A8F0EA8EF0A497
:20028F0028F8E435F0F9EB8DF0A428E935F0F9E433CA8FF0A429F9EA35F0FAEBF88EF0A4BE
:2002AF0029F9EA35F0FAE433FBEC8DF0A429F9EA35F0FAE43BFBE88FF0A42AFAEB35F0FB66
:2002CF00E433CCFD8EF0A42AFAEB35F0FBE43CFCED8FF0A42BFBEC35F0FC20E70312032040
:0302EF0002080BF7
:2002F200AA82AB83A2F73392D1F5826002D2F7ACF0E58124F9F8E6FD08E6FE0886F008E66F
:0E031200A2F73392D5F5836002D2F7AFF02246
:06003500E478FFF6D8FD9F
:200320007804EC7011E58224F8500AF582E4C9CACBFCD8EF22EC7820058220E713D58201DC
:1303400022C3E933F9EA33FAEB33FBEC33FCD8EA158222EA
:200013007900E94400601B7A00901294780175A000E493F2A308B8000205A0D9F4DAF275ED
:02003300A0FF2C
:20003B007800E84400600A790175A000E4F309D8FC7800E84400600C7900900001E4F0A3C3
:04005B00D8FCD9FAFA
:200353001202F27900E583B58202800D5003120FBBE583C3958212115EE5D0C465D020E13C
:2003730017EA2DFAEB3EFBEC3FFC5009740112115EEC4480FC02080BC3EA9DFAEB9EFBEC33
:190393009FFC500FC3E499F9E49AFAE49BFBE49CFCB2D112032002080BE3
:2003AC00C053858153C082058105810581E55324FBF8A9530909E6F70809E6F70809E6F7DB
:2003CC00A853080886820886830886F01210B0FAA31210B0FBA31210B0FF74012AFCE43B05
:2003EC00FD8F06A853080886820886830886F0EC121212A3ED121212A3EE1212128A828B77
:20040C00838FF0A85308E6121212855381D0532285824585834685F0477561457562007554
:20042C0063408541648542658543668544679003AC1208FEAE82AF83AB45AC46AD478B82BD
:20044C008C838DF0E41212128E828F8322C053858153E55324F8FF8F67E55324FBFF8F61AB
:20046C00756200756340E55324F8F886640886650886669003AC1208FEAE82AF83E553244F
:1B048C00FBF886030886040886058B828C838DF0E41212128E828F83D053229A
:08006800754B00E4F54CF54D69
:2004A700AE82AF837C007D00C3EC9EED9F50070CBC00F50D80F222C2C0C2C1758030D2C28E
:2004C70090012C1204A7C2C29000641204A7D2C290012C1204A7C2C29000641204A7D2C28F
:2004E70090012C1204A7C2C29000641204A7758038D2C29000641204A7C2C2900064120446
:20050700A7758008D2C290012C1204A7C2C29000641204A7758001D2C290012C1204A7C227
:20052700C29000641204A7758006D2C290012C1204A7C2C29000641204A775800CD2C290DE
:20054700012C1204A7C2C29000641204A775480022AF827410B5480C75820FC0071205EA0A
:20056700D007800F7420B5480A758200C0071205EAD007D2C0C2C18F80D2C290003212044D
:20058700A7C2C29000321204A7054822AD82AE83AFF0754900E5492DFAE43EFB8F048A826D
:2005A7008B838CF01210B0FC60198C82C007C006C005120558D005D006D007054974E0254B
:2005C7004950D222C2C0C2C1758001D2C29000321204A7C2C29000641204A77548002285E0
:2005E700488222AF8274E0254840238F4874F02548401BAF4874802FF580C2C0C2C1D2C288
:200607009000641204A7C2C29000320204A7227401254B4004054B80F6D2A0D2A1D2A2D2F3
:20062700A3754A0DC2A020A403754A0120A503754A0220A603754A03D2A0C2A120A4037536
:200647004A0420A503754A0520A603754A06D2A1C2A220A403754A0720A503754A0820A672
:2006670003754A09D2A2C2A320A403754A0A20A503754A0020A603754A0CD2A3854A82223C
:20068700AEF64306018EF675F320AEF34306088EF3E5F3E470FB53F3EFAEF57F00EE2EFE4E
:2006A700EF33FFEE2EFEEF33FFACF47D00EC2EF54CED3FF54D854C82854D8322AE82AF83C5
:2006C700AC894304208C8953892FC29FD29EAC874304808C878E7C8F7D757E00757F0090EC
:2006E700F424E4F5F012122DAC82C3E49CFC8C8DD29CD28E2285829910990280FB22AD8234
:20070700AE83AFF07C00EC2DF9E43EFA8F0389828A838BF01210B0FB60188B82C007C00654
:20072700C005C0041206FCD004D005D006D0070C80D475820D1206FC75820A0206FC30987A
:20074700FD859982C2982285825085835185F0527C007B008B017A00C3E9954EEA64808523
:200767004FF063F08095F05044C004C003120745AA82D003D004BA0D028003BA0A16EC2558
:2007870050F8E43551F9AF52888289838FF0E41212128019EB2550FDE43551FEAF528D8289
:2007A7008E838FF0EA1212120B8B0480A7E54E2550FDE54F3551FEAF528D828E838FF0E4E0
:0307C70002121209
:0D07CA00AC83AB827A007900748E0210D5EA
:2007D7001211A1700AE582458345F0700122E430D112F4700BE5F0F47006E58330E7012286
:1407F70090800022700AE5F07006E58320E70122907FFF2235
:20080B00B98003EA13B34010EA2401FAE43BFBE43CFC50047C800582BC000EBB000BBA0031
:20082B0008E4F5F0F583F58222A2D1E582138CF092F78B838A8222E4F583F58275F080F4F1
:0F084B00A2D11322E4F583F58275F0C0747F22E9
:20085A00AF82C057C058C0591208678007C055C0568F8222158115811581055FE4B55F027F
:20087A00056022AF8274302FFF24C6501174072FFFE55460098F057E004305208D078F821F
:20089A0002085AE582FFC4540FF582C00712087DD007740F5FF58202087D85827CAB5AAC8D
:2008BA005BAD5CAE5DAA5E757E208A07EF2FF57DEE235401457DFAEB2BFBEC33FCED33FD08
:2008DA00EE33FEC3EA957C4008EAC3957CFA430301E57E14FF8F7E70D18B5A8C5B8D5C8ED3
:2008FA005D8A5E22858255858356856157856258856359E4F55FF560AD64AE65AF668D822B
:20091A008E838FF01210B0FC74012DF564E43EF5658F66ECFF7003020FB4BF250280030265
:20093A000FAC7E007D008E688E697A007B008E6A7C008E6B8E71756CFF856472856573857C
:20095A0066748572828573838574F01210B0F575A3858272858373857264857365857466DC
:20097A007425B5750885758212085A808B74D025755039E57524C6403374FFB56C1AE57175
:20099A00F57675F00AA4F576E575F577257624D0F57170AE7D0180AAE56C75F00AA4F57703
:2009BA00E575F576257724D0F56C8096742EB5750A74FFB56C8C756C008087749F25755076
:2009DA000EE575248540085375DF75540180037554007420B57503020A87742BB5750302C5
:2009FA000A81742DB5750280797442B57503020A8D7443B57503020A987444B57503020C95
:200A1A00A97446B57503020CBF7448B5750302095C7449B57503020CA9744AB57503020978
:200A3A005C744CB575028050744FB57503020CB07450B57503020BF47453B5750280767487
:200A5A0054B5750302095C7455B57503020CB57458B57503020CBA745AB5750302095C02B6
:200A7A000CC37E0102095C75680102095C75690102095C7B0102095C756A0102095CEB60A7
:200A9A000AE56714F989678777800DE56724FEF576857667A9768777857782C006C005C03D
:200ABA0004C003C00212085AD002D003D004D005D006020CE2E56724FDF577857767A977AF
:200ADA008772098773098774191985725A85735B85745C8572828573838574F0C006C00569
:200AFA00C004C003C002120FD5858272858373D002D003D004D005D00685727774FFB56C83
:200B1A000385776CEE7036C3E5779571502FE571C39577F5768576721576E572601C7582C6
:200B3A0020C006C005C004C003C00212085AD002D003D004D005D00680DB857671856C76E1
:200B5A00855A82855B83855CF01210B0F57285726E60488576721576C374808572F063F0B7
:200B7A008095F05036856E82C006C005C004C003C00212085AD002D003D004D005D006856A
:200B9A005A72855B73855C740572E4B57202057385725A85735B85745C80A5EE7003020C3E
:200BBA00E2C3E57795714003020CE2E571C39577F5778577761577E5767003020CDF7582A0
:200BDA0020C006C005C004C003C00212085AD002D003D004D005D00680D8E56724FDF5763F
:200BFA00857667A9768772098773098774191985725A85735B85745C855C6F7480256F5007
:200C1A0005757643801974A0256F5005757650800E74C0256F50057576498003757658858C
:200C3A007682C006C005C004C003C00212085A75823A12085A75823012085A758278120891
:200C5A005AD002D003D004D005D0067449B5760280217450B57602801A855B82C006C005F9
:200C7A00C004C003C00212089DD002D003D004D005D006855A82C006C005C004C003C00201
:200C9A0012089DD002D003D004D005D00680397A01756B0A8032756B08802D756B0A802868
:200CBA00756B1080237C01801F857582C006C005C004C003C00212085AD002D003D004D05E
:200CDA0005D0068003857771EC6068E56724FCFC8C678C01877809877909877A09877B195D
:200CFA00191985785A85795B857A5C857B5D755A89755B12755C80855A78855B79855C7AAA
:200D1A0074012578F572E43579F573857A7485725A85735B85745C857882857983857AF0EB
:200D3A001210B0FC8C78700302091285788212085A80C4E56B7003020912EB603FE5671436
:200D5A00F9896787048C78757900757A00757B0085785A85795B857A5C857B5DEA6003027D
:200D7A000DFF855A78757900757A00757B0085785A85795B857A5C857B5D8069E56A602504
:200D9A00E56724FCFC8C678C01877809877909877A09877B19191985785A85795B857A5CDE
:200DBA00857B5D8040E56724FEFC8C678C018703098704198B78ECF5793395E0F57AF57BF7
:200DDA0085785A85795B857A5C857B5DEA7016855A78855B79F57AF57B85785A85795B855D
:200DFA007A5C857B5DEA602AE55D30E723C3E4955AF578E4955BF579E4955CF57AE4955D57
:200E1A00F57B85785A85795B857A5C857B5D80027A007C0179857B00755E00856B82C006E3
:200E3A00C005C004C003C002C0011208B4D001D002D003D004D005D006EC7010C003E55E94
:200E5A00C4F578E74578F719D0038002A75E0BECB40100E433FCE55A455B455C455D70B830
:200E7A0089708B6DE5717003757101ED702CEE7029857178AB6D0BC3EB9578501A758220DA
:200E9A00C006C005C004C00212085AD002D004D005D006157880DD857871EA601675822D86
:200EBA00C006C005C00412085AD004D005D00615718036E56D6032E568601675822BC0060B
:200EDA00C005C00412085AD004D005D00615718018E5696014758220C006C005C00412081C
:200EFA005AD004D005D0061571EE7034AB718B021BC3E56D9A503CED600875783075790088
:200F1A008006757820757900857882C006C005C004C00312085AD003D004D005D00680CE91
:200F3A00C3E56D95715008E571C3956DFD80067D0080028B05A970AB6D8B021BEA6036ECB2
:200F5A00B40100E433FC700A09E7C4540FFA8A5E80078702740F5AF55E855E82C006C0050C
:200F7A00C004C003C00112087DD001D003D004D005D00680C4EE70030209128D068E051E4F
:200F9A00ED7003020912758220C00612085AD00680EB8F8212085A020912855F82856083B8
:010FBA002214
:0B1289003C4E4F20464C4F41543E00AD
:1A0FBB00E582C583F582A2D133A2D592D11392D5ECCFFCEBCEFBEACDFA22BE
:180FD500AA82AB831210B06003A380F8C3E5829AF582E5839BF5832282
:200FED001202F230D502B2D1BF0009BC000302084F020842BC000302082CE583B4FF0BE528
:20100D0082B4FF0302084F02082CE582B4FF03020842C395835007247F400B02082C248099
:20102D00145003020842F582C3ED9AEE9BEF9C40111582C3EA33F9EB33FAEC33FBE433FC15
:20104D008005E4CCCBCAF9C08275F019C3E99DEA9EEB9FEC9400D5F002802D400EE99DF9E4
:20106D00EA9EFAEB9FFBEC9400FCC3B3E833F8E58233F582E58333F583C3E933F9EA33FA44
:20108D00EB33FBEC33FC80C4B3E4F938FAE43582FBE43583FCD082500405827C801203207D
:0310AD0002082313
:0D0006007581851211FCE582600302000384
:1C10B00020F71430F6148883A88220F507E6A88375830022E280F7E49322E0224F
:2010CC00FCABF0AA83A982749EF582C2D1EC30E716D2D1E9F42401F9EAF43400FAEBF43423
:0D10EC0000FBECF43400FC12032002080BA2
:2010F900FB7A20E4FCFDFEFFE5822582F582E58333F583E5F033F5F0EB33FB4017DAE98030
:2011190042E5822582F582E58333F583E5F033F5F0EB33FBEC33FCED33FDEE33FEEF33FF5E
:20113900EC957CED957DEE957EEF957F4013EC957CFCED957DFDEE957EFEEF957FFF438288
:0511590001DABEEB22EB
:20115E006040F82582500274FFF582E824F8501ECCCBCAF9E4CC24F85014CBCAF9E4CB2499
:20117E00F8500BCAF9E4CA24F8500379002224086010F8C3EC13FCEB13FBEA13FAE913F94C
:03119E00D8F12263
:2011A100121200C3749E95824039790012115E30D126E9F42401F582EAF43400F583EBF4A2
:2011C1003400F5F0ECF43400700AE582458345F0700122E430E70F22EC20E71489828A8325
:1B11E1008BF02230D10AE4F582F583F5F074802274FFF582F583F5F0747F2221
:0411FC0075820022D6
:12120000AA82AB83A2F73392D1F5826002D2F7ACF022F3
:1B12120020F71130F6138883A88220F509F6A8837583002280FEF280F5F022DB
:20122D00FBC2D530E715D2D5E4C39582F582E49583F583E495F0F5F0E49BFBE57F30E71739
:20124D00B2D5E4C3957CF57CE4957DF57DE4957EF57EE4957FF57FEB1210F930D513FBE496
:12126D00C39582F582E49583F583E495F0F5F0E49B22BB
:00000001FF
