:03000000020006F5
:0300670002000391
:0300030002006A8E
:08006A001201E185829080F88B
:06003500E478FFF6D8FD9F
:100013007900E94400601B7A00900487780175A099
:1000230000E493F2A308B8000205A0D9F4DAF2754C
:02003300A0FF2C
:10003B007800E84400600A790175A000E4F309D860
:10004B00FC7800E84400600C7900900001E4F0A318
:04005B00D8FCD9FAFA
:0D0006007581161203FAE582600302000303
:08005F00750B00E4F50CF50D32
:10007200AE82AF837C007D00C3EC9EED9F50070CE7
:10008200BC00F50D80F222C2C0C2C1758030D2C25E
:1000920090012C120072C2C2900064120072D2C28D
:1000A20090012C120072C2C2900064120072D2C27D
:1000B20090012C120072C2C290006412007275800C
:1000C20038D2C2900064120072C2C2900064120060
:1000D20072758008D2C290012C120072C2C29000C6
:1000E20064120072758001D2C290012C120072C299
:1000F200C2900064120072758006D2C290012C1266
:100102000072C2C290006412007275800CD2C2905A
:10011200012C120072C2C2900064120072750800B3
:1001220022AF827410B5080C75820FC0071201B598
:10013200D007800F7420B5080A758200C00712012B
:10014200B5D007D2C0C2C18F80D2C2900032120095
:1001520072C2C2900032120072050822AD82AE83D2
:10016200AFF0750900E5092DFAE43EFB8F048A829F
:100172008B838CF012046BFC60198C82C007C00662
:10018200C005120123D005D006D007050974E02569
:100192000950D222C2C0C2C1758001D2C2900032BF
:1001A200120072C2C29000641200727508002285A9
:1001B200088222AF8274E0250840238F0874F0255C
:1001C20008401BAF0874802FF580C2C0C2C1D2C2E2
:1001D200900064120072C2C2900032020072227455
:1001E20001250B4004050B80F6D2A0D2A1D2A2D2E7
:1001F200A3750A0DC2A020A403750A0120A50375E8
:100202000A0220A603750A03D2A0C2A120A4037584
:100212000A0420A503750A0520A603750A06D2A1C1
:10022200C2A220A403750A0720A503750A0820A606
:1002320003750A09D2A2C2A320A403750A0A20A543
:1002420003750A0020A603750A0CD2A3850A82222E
:10025200AEF64306018EF675F320AEF34306088E22
:10026200F3E5F3E470FB53F3EFAEF57F00EE2EFE01
:10027200EF33FFEE2EFEEF33FFACF47D00EC2EF5F4
:100282000CED3FF50D850C82850D8322AE82AF8386
:10029200AC894304208C8953892FC29FD29EAC879C
:1002A2004304808C878E138F147515007516009089
:1002B200F424E4F5F0120419AC82C3E49CFC8C8DA6
:1002C200D29CD28E2285829910990280FB22AD8225
:1002D200AE83AFF07C00EC2DF9E43EFA8F03898205
:1002E2008A838BF012046BFB60188B82C007C006F6
:1002F200C005C0041202C7D004D005D006D0070C36
:1003020080D475820D1202C775820A0202C7309824
:10031200FD859982C2982285821085831185F0120B
:100322007C007B008B017A00C3E9950EEA6480852C
:100332000FF063F08095F05044C004C00312031024
:10034200AA82D003D004BA0D028003BA0A16EC25A1
:1003520010F8E43511F9AF12888289838FF0E41224
:1003620003FE8019EB2510FDE43511FEAF128D82DC
:100372008E838FF0EA1203FE0B8B0480A7E50E2515
:1003820010FDE50F3511FEAF128D828E838FF0E4E2
:100392000203FEFB7A20E4FCFDFEFFE5822582F5E6
:1003A20082E58333F583E5F033F5F0EB33FB401759
:1003B200DAE98042E5822582F582E58333F583E539
:1003C200F033F5F0EB33FBEC33FCED33FDEE33FEB3
:1003D200EF33FFEC9513ED9514EE9515EF9516405E
:1003E20013EC9513FCED9514FDEE9515FEEF9516A5
:1003F200FF438201DABEEB227582002220F7113020
:10040200F6138883A88220F509F6A8837583002253
:1004120080FEF280F5F022FBC2D530E715D2D5E49A
:10042200C39582F582E49583F583E495F0F5F0E4D3
:100432009BFBE51630E717B2D5E4C39513F513E439
:100442009514F514E49515F515E49516F516EB12C9
:10045200039530D513FBE4C39582F582E49583F5C9
:1004620083E495F0F5F0E49B2220F71430F614882B
:1004720083A88220F507E6A88375830022E280F72D
:05048200E49322E022DA
:00000001FF
