:03000000020006F5
:03005F0002000399
:0300030002006296
:1B006200AF80747F5FFEEF30E7098E0774802FF59080ED7480C39EF59080E50C
:06003500E478FFF6D8FD9F
:200013007900E94400601B7A00900081780175A000E493F2A308B8000205A0D9F4DAF27512
:02003300A0FF2C
:20003B007800E84400600A790175A000E4F309D8FC7800E84400600C7900900001E4F0A3C3
:04005B00D8FCD9FAFA
:0D00060075810712007DE582600302000392
:04007D007582002266
:00000001FF
