:03000000020006F5
:03005F0002000399
:030003000200DA1E
:20006200AED84306408ED8AEDA4306408EDAAEDA4306028EDA2212023FAC82AD83AEF0FFE5
:20008200C004C005C006C00790EB8575F02174C01200E2AC82AD83AEF0FFE58124FCF581A3
:2000A200E4C0E0C0E0747EC0E07443C0E08C828D838EF0EF1201E6AC82AD83AEF0FFE5814C
:2000C20024FCF5818C828D838EF0EF12024C8582088583098508FA2212006285A0FA80FBC6
:2000E200120185BC00030202A1EF60FA30D502B2D1E583B4FF030202B7E582B4FF03020235
:20010200B7258340072482400B0202A124831450030202B7F582EA8DF0A4A8F0EA8EF0A4B2
:2001220028F8E435F0F9EB8DF0A428E935F0F9E433CA8FF0A429F9EA35F0FAEBF88EF0A42C
:2001420029F9EA35F0FAE433FBEC8DF0A429F9EA35F0FAE43BFBE88FF0A42AFAEB35F0FBD4
:20016200E433CCFD8EF0A42AFAEB35F0FBE43CFCED8FF0A42BFBEC35F0FC20E7031201B31D
:03018200020280F6
:20018500AA82AB83A2F73392D1F5826002D2F7ACF0E58124F9F8E6FD08E6FE0886F008E6DD
:0E01A500A2F73392D5F5836002D2F7AFF022B5
:06003500E478FFF6D8FD9F
:2001B3007804EC7011E58224F8500AF582E4C9CACBFCD8EF22EC7820058220E713D582014B
:1301D30022C3E933F9EA33FAEB33FBEC33FCD8EA15822259
:200013007900E94400601B7A009003CA780175A000E493F2A308B8000205A0D9F4DAF275C6
:02003300A0FF2C
:20003B007800E84400600A790175A000E4F309D8FC7800E84400600C7900900001E4F0A3C3
:04005B00D8FCD9FAFA
:2001E6001201857900E583B58202800D50031202CFE583C39582120316E5D0C465D020E168
:2002060017EA2DFAEB3EFBEC3FFC50097401120316EC4480FC020280C3EA9DFAEB9EFBEC88
:190226009FFC500FC3E499F9E49AFAE49BFBE49CFCB2D11201B302028051
:0D023F00AC83AB827A007900748E0202F26B
:20024C00120359700AE582458345F0700122E430D112F4700BE5F0F47006E58330E701226C
:14026C0090800022700AE5F07006E58320E70122907FFF22C5
:20028000B98003EA13B34010EA2401FAE43BFBE43CFC50047C800582BC000EBB000BBA00C2
:2002A00008E4F5F0F583F58222A2D1E582138CF092F78B838A8222E4F583F58275F080F482
:0F02C000A2D11322E4F583F58275F0C0747F227A
:1A02CF00E582C583F582A2D133A2D592D11392D5ECCFFCEBCEFBEACDFA22B7
:0D0006007581091203B4E582600302000356
:2002E900FCABF0AA83A982749EF582C2D1EC30E716D2D1E9F42401F9EAF43400FAEBF43414
:0D03090000FBECF43400FC1201B302028092
:200316006040F82582500274FFF582E824F8501ECCCBCAF9E4CC24F85014CBCAF9E4CB24EF
:20033600F8500BCAF9E4CA24F8500379002224086010F8C3EC13FCEB13FBEA13FAE913F9A2
:03035600D8F122B9
:200359001203B8C3749E95824039790012031630D126E9F42401F582EAF43400F583EBF4A5
:200379003400F5F0ECF43400700AE582458345F0700122E430E70F22EC20E71489828A837B
:1B0399008BF02230D10AE4F582F583F5F074802274FFF582F583F5F0747F2277
:0403B400758200222C
:1203B800AA82AB83A2F73392D1F5826002D2F7ACF0224A
:00000001FF
