:03000000020006F5
:0300670002000391
:030003000200A058
:10006A0075F60175F32053F3F8AEF38EF3AEF37F12
:10007A00004306088EF3AEF35306107F00BE10F657
:10008A00BF00F353F3EFE5F525E025E0FFE5F42F94
:10009A00F53A853A82221201F71203041203C08547
:1000AA008238858339C038C039746EC0E0740DC097
:1000BA00E07480C0E07408C0E07400C0E07440C01E
:1000CA00E0120192E58124F8F58190000875F0406C
:0B00DA001202CC9075301201E080BED5
:070D6E0056203D202569001D
:06003500E478FFF6D8FD9F
:100013007900E94400601B7A00900D80780175A097
:1000230000E493F2A308B8000205A0D9F4DAF2754C
:02003300A0FF2C
:10003B007800E84400600A790175A000E4F309D860
:10004B00FC7800E84400600C7900900001E4F0A318
:04005B00D8FCD9FAFA
:1000E500C04D85814DC082058105810581E54D2481
:1000F500FBF8A94D0909E6F70809E6F70809E6F747
:10010500A84D080886820886830886F0120C7CFABA
:10011500A3120C7CFBA3120C7CFF74012AFCE43BAC
:10012500FD8F06A84D080886820886830886F0ECB0
:10013500120D01A3ED120D01A3EE120D018A828BA2
:10014500838FF0A84D08E6120D01854D81D04D2213
:1001550085823F85834085F041755B3F755C007501
:100165005D40853B5E853C5F853D60853E619000D9
:10017500E51205A7AE82AF83AB3FAC40AD418B82A4
:100185008C838DF0E4120D018E828F8322C04D8504
:10019500814DE54D24F8FF8F61E54D24FBFF8F5B15
:1001A500755C00755D40E54D24F8F8865E08865F50
:1001B5000886609000E51205A7AE82AF83E54D2461
:1001C500FBF886030886040886058B828C838DF0F0
:0B01D500E4120D018E828F83D04D22BA
:08005F00754500E4F546F54784
:1001E000AE82AF837C007D00C3EC9EED9F50070C78
:1001F000BC00F50D80F222C2C0C2C1758030D2C2EF
:1002000090012C1201E0C2C29000641201E0D2C23F
:1002100090012C1201E0C2C29000641201E0D2C22F
:1002200090012C1201E0C2C29000641201E07580BE
:1002300038D2C29000641201E0C2C2900064120180
:10024000E0758008D2C290012C1201E0C2C2900079
:10025000641201E0758001D2C290012C1201E0C24B
:10026000C29000641201E0758006D2C290012C1287
:1002700001E0C2C29000641201E075800CD2C2900D
:10028000012C1201E0C2C29000641201E07542002C
:1002900022AF827410B5420C75820FC0071203237F
:1002A000D007800F7420B5420A758200C007120380
:1002B00023D007D2C0C2C18F80D2C29000321201B7
:1002C000E0C2C29000321201E0054222AD82AE834C
:1002D000AFF0754300E5432DFAE43EFB8F048A82BC
:1002E0008B838CF0120C7CFC60198C82C007C006DA
:1002F000C005120291D005D006D007054374E02551
:100300004350D222C2C0C2C1758001D2C290003215
:100310001201E0C2C29000641201E0754200228521
:10032000428222AF8274E0254240238F4274F0253E
:1003300042401BAF4274802FF580C2C0C2C1D2C2FE
:100340009000641201E0C2C29000320201E0227407
:100350000125454004054580F6D2A0D2A1D2A2D203
:10036000A375440DC2A020A40375440120A5037504
:10037000440220A603754403D2A0C2A120A40375A1
:10038000440420A50375440520A603754406D2A1A4
:10039000C2A220A40375440720A50375440820A623
:1003A00003754409D2A2C2A320A40375440A20A560
:1003B0000375440020A60375440CD2A38544822211
:1003C000AEF64306018EF675F320AEF34306088EB3
:1003D000F3E5F3E470FB53F3EFAEF57F00EE2EFE92
:1003E000EF33FFEE2EFEEF33FFACF47D00EC2EF585
:1003F00046ED3FF54785468285478322AE82AF832F
:10040000AC894304208C8953892FC29FD29EAC872C
:100410004304808C878E768F77757800757900908D
:10042000F424E4F5F0120D1CAC82C3E49CFC8C8D2A
:10043000D29CD28E2285829910990280FB22AD82B5
:10044000AE83AFF07C00EC2DF9E43EFA8F03898295
:100450008A838BF0120C7CFB60188B82C007C0066D
:10046000C005C004120435D004D005D006D0070C56
:1004700080D475820D12043575820A0204353098D5
:10048000FD859982C2982285824A85834B85F04CEE
:100490007C007B008B017A00C3E99548EA64808583
:1004A00049F063F08095F05044C004C00312047E0C
:1004B000AA82D003D004BA0D028003BA0A16EC2532
:1004C0004AF8E4354BF9AF4C888289838FF0E41207
:1004D0000D018019EB254AFDE4354BFEAF4C8D82B2
:1004E0008E838FF0EA120D010B8B0480A7E548255F
:1004F0004AFDE549354BFEAF4C8D828E838FF0E48B
:10050000020D01AF82C051C052C0531205108007C6
:10051000C04FC0508F82221581158115810559E485
:10052000B55902055A22AF8274302FFF24C65011EC
:1005300074072FFFE54E60098F057E004305208D6F
:10054000078F82020503E582FFC4540FF582C007BE
:10055000120526D007740F5FF58202052685827684
:10056000AB54AC55AD56AE57AA587578208A07EFF4
:100570002FF577EE2354014577FAEB2BFBEC33FC98
:10058000ED33FDEE33FEC3EA95764008EAC3957677
:10059000FA430301E57814FF8F7870D18B548C55A2
:1005A0008D568E578A582285824F858350855B51A0
:1005B000855C52855D53E4F559F55AAD5EAE5FAF8B
:1005C000608D828E838FF0120C7CFC74012DF55EA1
:1005D000E43EF55F8F60ECFF7003020C5DBF250207
:1005E0008003020C557E007D008E628E637A007B54
:1005F000008E647C008E658E6B7566FF855E6C85F3
:100600005F6D85606E856C82856D83856EF0120CE2
:100610007CF56FA385826C85836D856C5E856D5FCF
:10062000856E607425B56F08856F82120503808B17
:1006300074D0256F5039E56F24C6403374FFB5661A
:100640001AE56BF57075F00AA4F570E56FF5712584
:100650007024D0F56B70AE7D0180AAE56675F00A56
:10066000A4F571E56FF570257124D0F56680967458
:100670002EB56F0A74FFB5668C7566008087749F0F
:10068000256F500EE56F24854008536FDF754E01CE
:100690008003754E007420B56F03020730742BB5CC
:1006A0006F0302072A742DB56F0280797442B56F0B
:1006B000030207367443B56F030207417444B56FF4
:1006C000030209527446B56F030209687448B56F96
:1006D000030206057449B56F03020952744AB56FE7
:1006E00003020605744CB56F028050744FB56F035A
:1006F0000209597450B56F0302089D7453B56F0217
:1007000080767454B56F030206057455B56F030205
:10071000095E7458B56F03020963745AB56F03021A
:10072000060502096C7E01020605756201020605D6
:100730007563010206057B01020605756401020668
:1007400005EB600AE56114F989618771800DE56147
:1007500024FEF570857061A9708771857182C0066D
:10076000C005C004C003C002120503D002D003D0EC
:1007700004D005D00602098BE56124FDF571857171
:1007800061A971876C09876D09876E1919856C5489
:10079000856D55856E56856C82856D83856EF0C03E
:1007A00006C005C004C003C002120C6485826C85BB
:1007B000836DD002D003D004D005D006856C71744F
:1007C000FFB56603857166EE7036C3E571956B50B3
:1007D0002FE56BC39571F57085706C1570E56C60D5
:1007E0001C758220C006C005C004C003C0021205EB
:1007F00003D002D003D004D005D00680DB85706B17
:100800008566708554828555838556F0120C7CF57B
:100810006C856C68604885706C1570C37480856CDD
:10082000F063F08095F05036856882C006C005C040
:1008300004C003C002120503D002D003D004D005C7
:10084000D00685546C85556D85566E056CE4B56C87
:1008500002056D856C54856D55856E5680A5EE70CC
:100860000302098BC3E571956B400302098BE56BAD
:10087000C39571F5718571701571E570700302098A
:1008800088758220C006C005C004C003C0021205DE
:1008900003D002D003D004D005D00680D8E561246F
:1008A000FDF570857061A970876C09876D09876E89
:1008B0001919856C54856D55856E568556697480F9
:1008C00025695005757043801974A0256950057518
:1008D0007050800E74C0256950057570498003758D
:1008E0007058857082C006C005C004C003C00212E3
:1008F000050375823A12050375823012050375826D
:1009000078120503D002D003D004D005D006744974
:10091000B5700280217450B57002801A855582C06E
:1009200006C005C004C003C002120546D002D003B1
:10093000D004D005D006855482C006C005C004C0CE
:1009400003C002120546D002D003D004D005D00661
:1009500080397A0175650A8032756508802D756564
:100960000A802875651080237C01801F856F82C0F6
:1009700006C005C004C003C002120503D002D003A4
:10098000D004D005D006800385716BEC6068E5610A
:1009900024FCFC8C618C01877209877309877409B8
:1009A000877519191985725485735585745685751F
:1009B0005775547575550D755680855472855573E8
:1009C00085567474012572F56CE43573F56D857484
:1009D0006E856C54856D55856E56857282857383E0
:1009E0008574F0120C7CFC8C7270030205BB85725E
:1009F0008212050380C4E56570030205BBEB603F0E
:100A0000E56114F9896187048C727573007574004F
:100A1000757500857254857355857456857557EACA
:100A20006003020AA88554727573007574007575A9
:100A3000008572548573558574568575578069E5B0
:100A4000646025E56124FCFC8C618C018772098758
:100A50007309877409877519191985725485735537
:100A60008574568575578040E56124FEFC8C618C49
:100A7000018703098704198B72ECF5733395E0F550
:100A800074F575857254857355857456857557EA66
:100A90007016855472855573F574F5758572548595
:100AA0007355857456857557EA602AE55730E723F4
:100AB000C3E49554F572E49555F573E49556F574D1
:100AC000E49557F57585725485735585745685750B
:100AD0005780027A007C01797F7B0075580085651C
:100AE00082C006C005C004C003C002C00112055D7B
:100AF000D001D002D003D004D005D006EC7010C0D5
:100B000003E558C4F572E74572F719D0038002A7D0
:100B1000580BECB40100E433FCE55445554556450B
:100B20005770B8896A8B67E56B7003756B01ED7060
:100B30002CEE7029856B72AB670BC3EB9572501A64
:100B4000758220C006C005C004C002120503D00291
:100B5000D004D005D006157280DD85726BEA601670
:100B600075822DC006C005C004120503D004D0054F
:100B7000D006156B8036E5676032E56260167582D7
:100B80002BC006C005C004120503D004D005D00652
:100B9000156B8018E5636014758220C006C005C01F
:100BA00004120503D004D005D006156BEE7034ABEB
:100BB0006B8B021BC3E5679A503CED600875723081
:100BC0007573008006757220757300857282C00689
:100BD000C005C004C003120503D003D004D005D063
:100BE0000680CEC3E567956B5008E56BC39567FD3E
:100BF00080067D0080028B05A96AAB678B021BEA29
:100C00006036ECB40100E433FC700A09E7C4540F09
:100C1000FA8A5880078702740F5AF558855882C09F
:100C200006C005C004C003C001120526D001D003D0
:100C3000D004D005D00680C4EE70030205BB8D063B
:100C40008E051EED70030205BB758220C0061205DD
:100C500003D00680EB8F821205030205BB85598203
:040C6000855A83220C
:0B0D75003C4E4F20464C4F41543E00C6
:100C6400AA82AB83120C7C6003A380F8C3E5829A4A
:080C7400F582E5839BF5832264
:0D00060075817F120CFDE58260030200038E
:100C7C0020F71430F6148883A88220F507E6A883A1
:100C8C0075830022E280F7E49322E022FB7A20E4D1
:100C9C00FCFDFEFFE5822582F582E58333F583E5D5
:100CAC00F033F5F0EB33FB4017DAE98042E58225AF
:100CBC0082F582E58333F583E5F033F5F0EB33FB16
:100CCC00EC33FCED33FDEE33FEEF33FFEC9576EDBC
:100CDC009577EE9578EF95794013EC9576FCED953C
:100CEC0077FDEE9578FEEF9579FF438201DABEEB46
:100CFC00227582002220F71130F6138883A88220F7
:100D0C00F509F6A8837583002280FEF280F5F022A7
:100D1C00FBC2D530E715D2D5E4C39582F582E495B4
:100D2C0083F583E495F0F5F0E49BFBE57930E71768
:100D3C00B2D5E4C39576F576E49577F577E49578B6
:100D4C00F578E49579F579EB120C9830D513FBE432
:100D5C00C39582F582E49583F583E495F0F5F0E490
:020D6C009B22C8
:00000001FF
