:03000000020006F5
:03005F0002000399
:0300030002006296
:100062007E007F00C3EF6480948850F48E828F8379
:10007200C007C006120781AA82AB83ACF0FDC002A2
:10008200C003C004C005900FDB75F049743B120138
:100092000CAA82AB83ACF0FDE58124FCF5818A8257
:1000A2008B838CF0ED120210AA82AB83ACF0FDC000
:1000B20002C003C004C00590000075F0FE74421235
:1000C200010CAA82AB83ACF0FDE58124FCF581E44E
:1000D200C0E0C0E0C0E07443C0E08A828B838CF051
:1000E200ED120684AA82AB83ACF0FDE58124FCF517
:1000F200818A828B838CF0ED12078E858290D006E6
:10010200D0070EBE00010F0200661201AFBC000351
:100112000207E3EF60FA30D502B2D1E583B4FF0300
:100122000207F9E582B4FF030207F9258340072499
:1001320082400B0207E324831450030207F9F5827D
:10014200EA8DF0A4A8F0EA8EF0A428F8E435F0F9DC
:10015200EB8DF0A428E935F0F9E433CA8FF0A42935
:10016200F9EA35F0FAEBF88EF0A429F9EA35F0FA5B
:10017200E433FBEC8DF0A429F9EA35F0FAE43BFB19
:10018200E88FF0A42AFAEB35F0FBE433CCFD8EF0D5
:10019200A42AFAEB35F0FBE43CFCED8FF0A42BFB38
:1001A200EC35F0FC20E7031201DD0207C2AA82ABA4
:1001B20083A2F73392D1F5826002D2F7ACF0E581E7
:1001C20024F9F8E6FD08E6FE0886F008E6A2F73311
:0B01D20092D5F5836002D2F7AFF02257
:06003500E478FFF6D8FD9F
:1001DD007804EC7011E58224F8500AF582E4C9CA5E
:1001ED00CBFCD8EF22EC7820058220E713D58201D5
:1001FD0022C3E933F9EA33FAEB33FBEC33FCD8EAEB
:03020D0015822235
:100013007900E94400601B7A00900917780175A004
:1000230000E493F2A308B8000205A0D9F4DAF2754C
:02003300A0FF2C
:10021000AC82AD83AEF0FF8CF0ED42F0EE42F0EF39
:10022000547F45F07007900000E4F5F02275080057
:100230008C828D838EF0EF02023A85820985830AD3
:1002400085F00BF50CE5086040850982850A8385F9
:100250000BF0E50C1206DDA882A983AAF0FB74DB83
:10026000C0E0740FC0E074C9C0E0743FC0E0888291
:1002700089838AF0EB120684A882A983AAF0FBE5A1
:100280008124FCF5817F00803BE4C0E0C0E0C0E059
:10029000C0E0850982850A83850BF0E50C120654BF
:1002A000AE82E58124FCF581EE600FA809A90AAAB7
:1002B0000BE50CB2E7FB7F01800AA809A90AAA0B8B
:1002C000AB0C7F00C007C003C002C001C000C0006B
:1002D000C001C002C003900C0075F04974461206BC
:1002E00054AE82E58124FCF581D000D001D002D04B
:1002F00003D007EE600D752622752700900000E4FC
:10030000F5F022C007C000C001C002C00390F9830D
:1003100075F0A2743E12010CAB82AC83ADF0FEE529
:100320008124FCF581E4C0E0C0E0C0E0743FC0E09F
:100330008B828C838DF0EE120684AB82AC83ADF0A1
:10034000FEE58124FCF5818B828C838DF0EE120713
:100350008EAD82AE83D007ED30E007EFB40100E44C
:1003600033FF8D828E83C0071207818582198583B2
:100370001A85F01BF51CD007E508602EC007E4C005
:10038000E0C0E0C0E0743FC0E0851982851A838533
:100390001BF0E51C12085885821985831A85F01B0D
:1003A000F51CE58124FCF581D007850982850A8347
:1003B000850BF0E50CC0071206DD85820D85830EE6
:1003C00085F00FF51012078E12078185821D858337
:1003D0001E85F01FF520C01DC01EC01FC020850D4A
:1003E00082850E83850FF0E51012085885822185DD
:1003F000832285F023F524E58124FCF581C019C012
:100400001AC01BC01C90000075F049744012010C0A
:10041000AB82AC83ADF0FEE58124FCF581C003C066
:1004200004C005C006851D82851E83851FF0E5205A
:10043000120858AB82AC83ADF0FEE58124FCF58157
:10044000C021C022C023C0248B828C838DF0EE1289
:10045000068485822185832285F023F524E5812485
:10046000FCF581C019C01AC01BC01C90AA2275F0EF
:100470007D743A12010CA882A983AAF0FEE58124BA
:10048000FCF581C000C001C002C006852182852222
:10049000838523F0E524120858858211858312850F
:1004A000F013F514E58124FCF581C011C012C013CE
:1004B000C0148511828512838513F0E51412010C96
:1004C00085821585831685F017F518E58124FCF5DE
:1004D00081C015C016C017C01890FFF375F07F7467
:1004E00033120654AD82E58124FCF581D007ED700E
:1004F00003020634C007C015C016C017C018909C70
:100500005B75F02E743612010CAB82AC83ADF0FE3D
:10051000E58124FCF5817422C0E074B2C0E0744F20
:10052000C0E074B9C0E08B828C838DF0EE1206843B
:10053000AB82AC83ADF0FEE58124FCF581C015C033
:1005400016C017C0188B828C838DF0EE12010CAB95
:1005500082AC83ADF0FEE58124FCF581743EC0E001
:100560007487C0E07408C0E0743CC0E08B828C8368
:100570008DF0EE120684AB82AC83ADF0FEE58124F3
:10058000FCF581C015C016C017C0188B828C838DF6
:10059000F0EE12010CAB82AC83ADF0FEE58124FCE1
:1005A000F58174A4C0E074AAC0E0742AC0E074BEEF
:1005B000C0E08B828C838DF0EE120684AB82AC831C
:1005C000ADF0FEE58124FCF581C015C016C017C052
:1005D000188B828C838DF0EE12010CAB82AC83AD54
:1005E000F0FEE58124FCF581C003C004C005C0060F
:1005F0008511828512838513F0E51412010CAB82FC
:10060000AC83ADF0FEE58124FCF581C003C004C0DD
:1006100005C0068511828512838513F0E514120644
:100620008485821185831285F013F514E58124FCFD
:10063000F581D007EF600DAC11AD12AE13E514B229
:10064000E7FF8008AC11AD12AE13AF148C828D831E
:100650008EF0EF22FFA8811818120756D2D133E688
:10066000400730E70B7582002220E70675820122E1
:10067000C2D1120738E97003F5822220D101B3E418
:0406800033F58222AA
:10003B007800E84400600A790175A000E4F309D860
:10004B00FC7800E84400600C7900900001E4F0A318
:04005B00D8FCD9FAFA
:100684001201AF7900E583B58202800D5003120890
:1006940011E583C39582120863E5D0C465D020E1D7
:1006A40017EA2DFAEB3EFBEC3FFC500974011208EB
:1006B40063EC4480FC0207C2C3EA9DFAEB9EFBECA8
:1006C4009FFC500FC3E499F9E49AFAE49BFBE49C81
:1006D400FCB2D11201DD0207C2C025858125AC829E
:1006E400AD83AEF0FFE5812404F581E52504F8A689
:1006F4000408A60508A60608A607A925098704096B
:10070400870509870609870719191953077FA7045D
:1007140009A70509A70609A707A9250987040987C1
:10072400050987060987078C828D838EF0EF85255E
:1007340081D025227901AA82E68F82B5821318E638
:10074400B5F00E18E6B5830918E68A82B5820279F7
:100754000022B4800FE5F0700AE5837006E582702C
:10076400027F00EFB6801518B6001018B6000B18FB
:10077400B6000608080876002208080822AC83ABF5
:10078400827A007900748E0208341208A6700AE591
:1007940082458345F0700122E430D112F4700BE5F8
:1007A400F0F47006E58330E7012290800022700A9D
:1007B400E5F07006E58320E70122907FFF22B980EF
:1007C40003EA13B34010EA2401FAE43BFBE43CFCE3
:1007D40050047C800582BC000EBB000BBA0008E408
:1007E400F5F0F583F58222A2D1E582138CF092F71D
:1007F4008B838A8222E4F583F58275F080F4A2D19A
:100804001322E4F583F58275F0C0747F22E582C576
:1008140083F582A2D133A2D592D11392D5ECCFFC29
:07082400EBCEFBEACDFA2246
:0D000600758127120901E5826003020003E5
:10082B00FCABF0AA83A982749EF582C2D1EC30E7AF
:10083B0016D2D1E9F42401F9EAF43400FAEBF434DA
:10084B0000FBECF43400FC1201DD0207C2A8811896
:10085B0018C6B2E7C60206846040F82582500274BF
:10086B00FFF582E824F8501ECCCBCAF9E4CC24F86F
:10087B005014CBCAF9E4CB24F8500BCAF9E4CA24C0
:10088B00F8500379002224086010F8C3EC13FCEB3A
:10089B0013FBEA13FAE913F9D8F122120905C37411
:1008AB009E95824039790012086330D126E9F424F1
:1008BB0001F582EAF43400F583EBF43400F5F0EC47
:1008CB00F43400700AE582458345F0700122E43070
:1008DB00E70F22EC20E71489828A838BF02230D138
:1008EB000AE4F582F583F5F074802274FFF582F546
:1008FB0083F5F0747F2275820022AA82AB83A2F764
:0C090B003392D1F5826002D2F7ACF022EA
:00000001FF
